:020000040800F2
:10000000A8050020011D0008E91B0008EB1B0008E3
:10001000ED1B0008EF1B0008F11B000800000000AA
:10002000000000000000000000000000F31B0008BA
:10003000F51B000800000000F71B0008F91B000872
:10004000191D00081D1D0008211D0008251D0008A0
:10005000291D00082D1D0008311D0008351D000850
:10006000391D00083D1D0008411D0008451D000800
:10007000491D00084D1D0008511D0008551D0008B0
:10008000591D00085D1D0008FD1B0008611D0008CA
:10009000651D0008691D00086D1D0008711D000820
:1000A000751D0008791D00087D1D0008811D0008D0
:1000B000851D0008891D00088D1D0008911D000880
:1000C000951D0008991D00089D1D0008A11D000830
:1000D000A51D0008031C0008A91D0008AD1D00088F
:1000E000B11D0008B51D0008B91D0008BD1D0008A0
:1000F000C11D0008C51D0008C91D0008CD1D000850
:10010000D11D0008D51D0008D91D0008DD1D0008FF
:10011000E11D0008E51D0008E91D0008ED1D0008AF
:10012000F11D0008F51D0008F91D0008FD1D00085F
:10013000011E0008051E0008091E00080D1E00080B
:10014000111E0008151E0008191E00081D1E0008BB
:10015000211E0008251E0008291E00082D1E00086B
:10016000311E0008351E0008391E00083D1E00081B
:10017000411E0008451E0008491E0008000000003E
:100180004D1E0008511E0008551E0008591E00088B
:100190005D1E0008611E0008651E0008691E00083B
:1001A0006D1E0008711E0008751E000838B5040099
:1001B00001D1012032BD04F14005687808B900F092
:1001C00009F800F00CF800F022F8FFE7486100F0B1
:1001D00010F832BD00212970204600F0C2BA242058
:1001E00068702168C86820F40050C860204600F09C
:1001F0003BBA2168C86840F40050C8606A6020219A
:1002000069702020A8700021616300207047216878
:10021000086920F49040086100222168486920F0B4
:100220002A00704790F84130202B12D109B11300F9
:1002300001D10120704701628284C2842121002201
:10024000426480F841100168C86840F0800000F006
:1002500076B902207047F8B5044622681368114643
:100260000846CD68466913F00F0F03F0200105F032
:10027000200007D1002918BF00285BD02046BDE828
:10028000F24095E1F70702D415F4907F52D0DA07D7
:1002900005D5ED0503D5626C42F0010262645D078D
:1002A00005D5F20703D5656C45F0020565649A072C
:1002B00005D5F50703D5626C42F0040262641A07A3
:1002C00006D508B9F20703D5636C43F008036364ED
:1002D000626C002A2DD000291EBF0028204600F0A5
:1002E00067F920684069626C110701D440061BD58C
:1002F000204600F027F92168486941060FD500F033
:1003000001F960B10FF299210165E06B00F0C2FACA
:1003100000280ED0E06B016DBDE8F4400847204690
:10032000BDE8F24000F0D0BA204600F0CDFA00203F
:100330006064F1BD206B012804F1410140F08B8025
:10034000D80600D5EE0640F186800023009312689F
:10035000009223685A680092009B22685069420606
:100360003DD5E26B1068406880B20028E1D0A38DD3
:100370009842DEDAE085D069B0F5807F27D0226828
:1003800002F10C0555E8002F206800F10C0322F45F
:10039000807200F09FF8F2D100F0A0F8520800F14E
:1003A0001403520000F096F8F6D100F097F800F12F
:1003B000140322F0400200F08DF8F6D1202048709E
:1003C0000021216300F091F8E06B00F025FA022093
:1003D0006063A18DE08D091A89B2204637E0A38DB4
:1003E000E28DE08D9B1A00281CBF98B2002870D0C7
:1003F0002246156805F10C0454E8004F0C3524F42E
:10040000907445E800400028F3D1146804F1140604
:1004100056E8004F1068640800F11405640045E8D0
:1004200000400028F1D12020487000211163146899
:1004300004F10C0151E8001F0C3421F0100144E8D4
:1004400000100028F3D10220506399B21046BDE895
:10045000F44000F03ABA1A062BD5280629D50978B7
:10046000212936D1A068B0F5805F04BF206900283B
:1004700009D1226A21681088C0F308004860206A08
:10048000811C216205E0216A481C206222680978EB
:100490005160E08C401EE08480B2D0B92068C16811
:1004A00021F08001C1602168C86840F04000C86048
:1004B000F1BD58060DD56A060BD52068C26822F03A
:1004C0004002C260204620220A70BDE8F24000F0DF
:1004D000FDB9F1BD43E8002000287047226802F111
:1004E000140555E8002F20687047226802F10C01BE
:1004F00051E8001F0C3221F0100142E800100028E2
:10050000F3D17047226802F1140353E8001F14323C
:1005100021F0400142E800100028F3D1E06B704761
:1005200022F0100243E8002100297047026802F11E
:100530000C0454E8002F016801F10C037047C860F7
:1005400000207047036803F10C0252E8002F0C33BF
:1005500022F4907243E800210029F3D1036803F1EB
:10056000140252E8002F52081433520043E80021CD
:100570000029F3D1016B01290BD1036803F10C02AF
:1005800052E8002F0C3322F0100243E8002100292A
:10059000F3D1202280F8422000210163704700003F
:1005A000806B0022C2850021C18400F08DB900005B
:1005B0001CB590F84210222954D18168826AB1F5A5
:1005C000805F09D1016961B903685968C1F3080105
:1005D0001180826A911C0EE0002904BF0169002984
:1005E00002D10368596803E00168496801F07F019E
:1005F0001170826A511C8162C18D491EC18589B208
:1006000071BB0268D16821F02001D160002302682B
:10061000D16821F48071D1600268516949084900AC
:100620005161202280F842204363016B012915D1DA
:100630000363FFF77BFFFFF773FFFAD101680A68D6
:10064000D30607D5002200920B6800930468626805
:100650000092009B818D00F038F901E000F037F93D
:10066000002016BD022016BD70B50646326811691D
:10067000F06821F4405101431161D3682748B16803
:10068000034030690B4371690343F0690B43034333
:10069000D3605169B06921F440710143516120492F
:1006A0008A421CBF1F48824202D100F09FF901E03C
:1006B00000F094F972683568F6691921B6F5004FB3
:1006C000A1FB00016FF0630412D1D30F520000F0C0
:1006D000A5F900F029F8E40032346420B4FBF0F00E
:1006E000420002F4F87202EB011200F0070010E081
:1006F000930F920000F092F900F016F824013234C2
:100700006420B4FBF0F000F0F00202EB011200F004
:100710000F008018A86070BD00000000F369FFFFA3
:1007200000100140001401406421B0FBF1F104FB12
:10073000010470474FF4E13180B53048304B4160DF
:1007400000220C2103608260C2600261416182610B
:10075000C261FFF72BFD18B1BDE8014000F0A2BA5D
:1007600001BD10B586B004461421002201A800F096
:10077000A5FA236822498B423DD100200090214CEC
:100780002148416941F010014161416901F01001C6
:1007900000910021009B00910221026842F00102B9
:1007A00002604FF40072006800F0010000902046E3
:1007B000009B0192029101220392032104910722DE
:1007C000059201A900F084FA02210291002203920D
:1007D0004FF480600321019004910722059201A942
:1007E000204600F075FA00220021252000F0A1FB30
:1007F000252000F0BDFB06B010BD00005C0100200C
:1008000000100140000002403038024021680868B2
:100810004008400008607047F8B5044604F134050C
:100820006E6A00F0CDFB07466878022805D080216B
:100830002962002028700120F2BD2168086820F09C
:1008400016000860216800F037F804BF68690028C6
:1008500004D02168086820F008000860FFF7D6FF80
:1008600022681168C8070CD500F0AAFBC01B062837
:10087000F6D320202862032169700020287003200D
:10088000F2BDA86A3F218140B1600020012169705A
:100890002870F2BD90F83520022A03D080214165EE
:1008A00001207047052180F835100168086840086C
:1008B0004000086000207047486920F080004861CF
:1008C000E86800287047000070477047704770471D
:1008D0002DE9F04104000F4654D0494E306800F035
:1008E0000F00B84202D200F073F84BD12168454D99
:1008F000880712D5490703D5A86840F4E050A860DE
:100900002078010703D5A86840F46040A860A96872
:10091000A06821F0F0010143A9602178C80729D51A
:100920006068012802D129688A0305E0022818BFFF
:10093000032803D129688A0103D423E029688A07A0
:1009400020D5A968890840EA8100A86000F038FB3A
:100950008046A868616800F00C00B0EB810F09D0F8
:1009600000F02EFBA0EB080041F289318842F0D361
:1009700003202BE0306800F00F00874204D200F023
:1009800027F801D0012021E02078420705D5A96889
:10099000E06821F4E0510143A96021780A0706D5F7
:1009A000A868216920F4604040EAC100A86000F016
:1009B0000DFBAA681449154BC2F30312895CC840A9
:1009C00018601348006800F031FB0020BDE8F0819A
:1009D0003770316801F00F01B94270470B480D4B79
:1009E00000681A680C49C2F3822206E00748094BE6
:1009F00000681A680849C2F34232895CC8407047EF
:100A0000003C024000380240781C00081000002022
:100A10000C00002008380240101D0008D3BBD9B1DB
:100A2000B2F5803F5BD2022A1ED98C46B1FBF2F1AF
:100A300002FB11C31B0443EA1043B3FBF2FC02FBAD
:100A40001C3380B240EA0343B3FBF2F002FB1032E6
:100A500040EA0C4000237047022A05D98446B0FBC7
:100A6000F2F002FB10C270474AB105D100F001025A
:100A700049085FEA3000704700220023704700F009
:100A8000F5BA0B000200002100207047F7D30022C6
:100A900000237047904271EB030CF2D370B5B1FAAA
:100AA00081F4B3FA83F52C1BA340C4F1200532FA7C
:100AB00005F63343A2405FF00046E64002E05B08E3
:100AC0005FEA3202841A71EB030524BF20462946EF
:100AD0007641F4D302000B003000002170BD70B5E8
:100AE000B1FA81F4B2FA82F5C4F120046419B4F1C8
:100AF0002006DAD3B2405FF00044F440002502E063
:100B000052085FEA3303C61A71EB020E24BF304667
:100B1000714664416D41F3D302000B0020002900AF
:100B200070BD0EE002684368024408305FEAC37C8F
:100B300044BF4B445B1E52F804CB43F804CB091F5F
:100B4000F9D150F8041B0029ECD1704718B587B0D3
:100B500000F08EFA00F0A6FA00F0E0FAB42000F0FF
:100B600085FB00F0A7FB00F041F800F08DFCFFF7DB
:100B7000E1FD494C05E000F0C7FA4FF4FA7000F0CF
:100B800093FB00F028FD0028F5D104A846A10A2215
:100B900000F056FD0DF1080046A1052200F050FDC1
:100BA000002000F004FB02280DD1052202A900203C
:100BB00000F035FD0A2204A92046FFF733FB64202C
:100BC00000F072FB0BE0012809D1052269460020E4
:100BD00000F014FD052269462046FFF723FB0120A3
:100BE00000F085FA0A2000F05FFBCEE780B592B0F6
:100BF000302106A800F030FD142101A800F02CFDE2
:100C0000002000904FF480322448016841F0805168
:100C10000160006800F08050009000200099009072
:100C20001F48016841F440410160006800F4404001
:100C3000009001200099079202210C9106904FF438
:100C4000800219210D920E914FF4B4700F90022280
:100C500004211092119106A800F002FD08B100F0E5
:100C600021F800F087FE08B100F01CF80F22019275
:100C700002210291002203924FF4A05104914FF4FB
:100C800080520592052101A8FFF722FE08B100F06D
:100C900009F813B000BD00005C010020403802409C
:100CA0000070004072B6FEE77772697465206F6B62
:100CB0000A0000006D75610A000000004018491C20
:100CC0001CBFB1F1010100F8012DF9D170470000FE
:100CD0002DE9F84F0022DFF8F841DFF8F8814FF0F6
:100CE0000F0901230F6893401F409F4240F0D780B7
:100CF0004FEA420C032505FA0CF56FEA050E4D6824
:100D000005F00306012E1CBF05F00305022D10D1CE
:100D10008668CD680EEA060605FA0CF52E43866055
:100D2000456825EA03034D68C5F3001595402B433C
:100D3000436093000D7905F00305032D1ED0C668AE
:100D40008D680EEA060605FA0CF52E43C6600E798C
:100D500006F00306022E11D1D50800EB850503F03D
:100D60001C06D5F820B009FA06FA2BEA0A0BD1F8CE
:100D700010A00AFA06F646EA0B062E6205680EEA8D
:100D800005060D7905F0030505FA0CF545EA060C94
:100D9000C0F800C04D6815F4403F00F080804FF06F
:100DA000000ECDF800E04FEA920CD8F8005045F460
:100DB0008045C8F8005003F00C03D8F800E0464D19
:100DC0000EF4804ECDF800E009FA03F6DDF800E0FD
:100DD00055F82C50B543414EB04208BF4FF0000EBD
:100DE00036D03F4EB04208BF4FF0010E30D03D4EDE
:100DF000B04208BF4FF0020E2AD03B4EB04208BFAF
:100E00004FF0030E24D0394EB04208BF4FF0040E0D
:100E10001ED0374EB04208BF4FF0050E18D0354EE9
:100E2000B04208BF4FF0060E12D0334EB04208BF9A
:100E30004FF0070E0CD0314EB04208BF4FF0080EF5
:100E400006D02F4EB0420CBF4FF0090E4FF00A0EE5
:100E50000EFA03F3DFF880E02B434EF82C30FE430C
:100E6000A3684D683340ED0248BF3B43A360E3688D
:100E70004D683340AD0248BF3B43E36063684D6853
:100E80003340AD0348BF3B436360236806EA030C6D
:100E90004B68DB0348BF47EA0C0CC4F800C0521C87
:100EA0000F2A7FF61EAFBDE8F18F0069084018BF1A
:100EB0000120C0B2704702B90904816170474369DB
:100EC00001EA0302994341EA02418161704700004F
:100ED000003C014044380240083801400000024014
:100EE0000004024000080240000C024000100240D2
:100EF0000014024000180240001C02400020024082
:100F0000002402400A01010002D4274B5A547047C2
:100F1000264801F00F01014401F8042C70472449D0
:100F20000A6860F30A2240F2FA5060F31F420A6036
:100F3000704770B51E4C2368C3F302230124C3F12C
:100F40000705052D2FBF0F26C3F1070604FA06F685
:100F5000761E1D1D072D34BF0023DB1E3140994036
:100F600004FA03F3BDE870405B1E1A401143C9E761
:100F7000010007D4012200F01F010E4B8A404009F6
:100F800043F820207047401EB0F1807F01D301203C
:100F9000704709494860F0220848027000238B60BE
:100FA00007220A600020704700E400E018ED00E02E
:100FB0000CED00E000E100E010E000E023ED00E0D7
:100FC00001484068704700BF0400002030B5144C51
:100FD000606800F00C00042802D0082802D01DE050
:100FE000104830BD226821680023480202F03F0209
:100FF00004D525680B48C5F3881103E021680A4829
:10100000C1F38811A0FB0101FFF708FD2168C1F3BE
:101010000141491C4900B0FBF1F030BD024830BD30
:101020000438024040787D010024F40038B50D4DAD
:101030000D4A297804464FF47A731068B3FBF1F136
:10104000B0FBF1F0FFF79FFF50B9102C08D200223F
:1010500021464FF0FF30FFF76CFFAC60002032BD3F
:10106000012032BD04000020100000207047000065
:1010700080B50B48016841F400710160026842F4D8
:1010800080620260016841F4807101600320FFF713
:1010900046FF0F20FFF7CAFF00F0A6FC002002BDAC
:1010A000003C024010B586B01421002201A8FFF7D1
:1010B00005FE00211748184C00910321026842F0F8
:1010C000020202600122006800F002000090009815
:1010D0002046FFF7F0FE03200121019002910391C9
:1010E0000491204601A9FFF7F3FD06B010BD0A4B9D
:1010F00010B1012802D07047012200E00022012136
:10110000FFE71846FFF7D7BE0221FFE70248FFF7C7
:10111000D6BE0000303802400004024080B586B0E0
:101120001421002201A8FFF7C9FD002144480091C5
:10113000026842F004020260016801F004010091BB
:101140000021009B0091026842F080020260016869
:1011500001F0800100910021009A009100220368B3
:1011600043F001030360006800F0010000900820D4
:101170000099019001210391029201A93148FFF7E2
:10118000A7FD01200021019002910222039201A9F2
:101190002D48FFF79DFD0C200121019000220391B5
:1011A000029201A92948FFF793FD07B000BD2DE980
:1011B000F0410024244D234EDFF89080244F10B1DD
:1011C0000120386001E0396811B100F04BF850B1EE
:1011D000042100F048F830B100F03CF818B100F0FC
:1011E0003DF8012816D10A2000F05FF83C6000F0BD
:1011F00039F800B90124042100F035F800B90224BF
:1012000000F028F800B9032400F028F8012813D1D1
:10121000042411E000F026F801280DD1042100F08B
:1012200022F8012808D100F015F8012804D100F0B7
:1012300015F808B9012038602046BDE8F0810000AB
:10124000303802400008024000000240001C02400A
:101250000000002008213046FFF727BE0121284664
:10126000FFF723BE08214046FFF71FBE0C49086068
:10127000704770B50B4B0A4D1C6829685E680022E8
:1012800048435D68B542FCD002D2B218521B02E05E
:10129000A218511B721882422E46F2D370BD000074
:1012A000A401002014E000E000E080B24FF47A7165
:1012B0004843DEE710B586B000200090704C7148BE
:1012C000026842F080020260016801F08001009132
:1012D0000021009B00910121026842F0800202601F
:1012E0001022006800F0800000902046009B0291D0
:1012F000039101920321049101A9FFF7E9FC112157
:1013000020220291019201A92046FFF7E1FC00F0A2
:1013100017F806B010BD0220FFF7ABBF10B5584C50
:10132000012200F0A9F80122102100F0A6F8FFF731
:10133000F2FF00F0A0F8FFF7EEFF0022102183E09B
:1013400010B500F097F8FFF7E6FF012275E070B5E1
:10135000064608244A4D3006C00F14BF0122002261
:1013600020212846FFF7A7FDFFF7D5FF00F054F82E
:10137000FFF7D1FF002200F050F87600641EEAD19A
:101380002846BDE8704001222021FFF794BDF8B542
:101390000746002508243A4E012210213046FFF767
:1013A0008AFDFFF7B8FF20213046FFF77EFD6D0074
:1013B00000B16D1C002210213046FFF77CFD022099
:1013C000FFF757FF641EE7D117B900F043F801E0BB
:1013D00000F027F8E8B2F2BD0122202170B5284DB7
:1013E0002846FFF768FDFFF796FF00F015F8FFF7B6
:1013F00092FF0026FB2420212846FFF756FD20B14E
:10140000641EF8D1FFF79CFF0126002200F005F8CA
:10141000FFF781FF304670BD012210212846FFF7FB
:101420004ABD10B500F026F8FFF775FF0122102124
:1014300000F023F8FFF76FFF0022102100F01DF8E5
:10144000FFF769FF012220212046FFF734FDBDE8A8
:10145000104060E710B50A4C012200F00DF8FFF7CC
:101460005AFF0122102100F008F8FFF754FF002274
:101470001021E9E7024C002220212046FFF71BBD86
:10148000001C02403038024010B586B01421002202
:101490006846FFF713FC00212548264C0591026899
:1014A00042F004020260016801F0040100F04AF811
:1014B00042F080020260016801F0800100F042F811
:1014C00042F001020260016801F001010591002172
:1014D000059A05910122036843F00203036003218A
:1014E000006800F00200059005982046FFF7E3FC35
:1014F000082000F02DF81048FFF7EAFB0120022138
:1015000000F027F80D48FFF7E3FB0C2000F020F86F
:101510000B48FFF7DDFB03200121009001910291B0
:10152000039120466946FFF7D3FB06B010BD0000CB
:10153000303802400004024000080240000002402F
:10154000001C024005910021059B0591026870472F
:10155000012100900022029101926946704738B53E
:1015600004460D46FFF7DAFE00F02FF8FFF734FFD0
:10157000E0B2FFF7ECFEFFF72FFF2846FFF7E7FE8C
:10158000FFF72AFFFFF7DCFEBDE832400A20FFF735
:101590008BBE10B50446FFF7C1FE00F016F8FFF74A
:1015A0001BFFE0B2FFF7D3FEFFF716FFFFF7B6FE13
:1015B000A120FFF7CCFEFFF70FFF0020FFF7E7FEAB
:1015C0000446FFF7BDFE204610BD200A4000A030B3
:1015D000C0B2FFF7BCBE80B5FF20FFF7DAFF552889
:1015E00008D05521FF20FFF7BAFFFF20FFF7D1FFFA
:1015F000552801D1002002BD012002BD70B504466E
:101600000D46164605E0A0B2FFF7C3FF641C05F8BF
:10161000010B3046461E80B20028F4D170BD70B573
:1016200004460D46164605E015F8011BA0B2FFF76B
:1016300096FF641C3046461E80B20028F4D170BD6F
:101640004AB1000011F8013B521E00F8013B1CBFDB
:1016500011F8013BF8E77047002200F0E1B9000003
:101660002DE9F843040016D02078DFF8F862C107AE
:1016700013D5B06800F00C00042807D0B06800F063
:101680000C0008283DD1706841023AD530688103CA
:1016900003D56068002800F05F812078B24F810791
:1016A00019D5B06810F00C0F07D0B06800F00C002E
:1016B00008285CD17068410259D43068810703D58D
:1016C000E068012840F048813168206921F0F80184
:1016D00041EAC00131602178080773D56069A349E8
:1016E000002862D001220A60FFF76AFC0546706F8D
:1016F000810767D4FFF764FC401B0228F7D9032059
:101700002DE16068B0F5803F03D1306840F480304F
:1017100012E0B0F5A02F08D1306840F4802030608E
:10172000316841F48031316007E0326822F4803260
:101730003260306820F480203060606858B1FFF774
:101740003FFC054631688803A7D4FFF739FC401BEE
:101750006528F7D3D3E7FFF733FC054631688803E4
:101760009BD5FFF72DFC401B6528F7D3C7E7E06842
:1017700068B101213960FFF723FC05463068810715
:10178000A2D4FFF71DFC401B0228F7D9B7E70022BF
:101790003A60FFF715FC0546316888079BD5FFF7CF
:1017A0000FFC401B0228F7D9A9E70860FFF708FCE7
:1017B0000546716F880705D5FFF702FC401B02281C
:1017C000F7D99CE72078410760D5306C0025C1002F
:1017D0000BD4002000900125316C41F08051316420
:1017E000306C00F0805000900098DFF88481D8F8C9
:1017F0000000C10513D4D8F8000040F48070C8F888
:101800000000FFF7DDFB8146D8F80010C80506D4BC
:10181000FFF7D6FBA0EB09000228F5D96FE7A06817
:10182000012805D00528306F06D140F0040030674C
:10183000306F40F0010005E0400840003067306F35
:1018400020F00400306741F28938A06860B1FFF7EA
:10185000B7FB8146316F880713D4FFF7B1FBA0EBCC
:1018600009004045F6D34AE7FFF7AAFB8146316FEE
:10187000880706D5FFF7A4FBA0EB09004045F6D387
:101880003DE71DB1306C20F080503064A069002825
:1018900064D0B16801F00C0108293AD002282AD19D
:1018A00000203866FFF78CFB05463068810105D5BE
:1018B000FFF786FB401B0228F7D920E7E269206A80
:1018C000616A0243A06A400842EA8112401E42EA6D
:1018D0000042E06A42EA0062726001213966FFF765
:1018E0006FFB04463068810138D4FFF769FB001BA9
:1018F0000228F7D903E700203866FFF761FB0446AA
:10190000306881012AD5FFF75BFB001B0228F7D95D
:10191000F5E6012820D07068E16900F480028A426F
:1019200002BF00F03F02216A8A4201BF47F6C0723F
:101930000240616AB2EB811F0ED1A16A00F440320D
:1019400002F580324908B2EB014F02BF00F070602F
:10195000E16AB0EB016F01D0012000E00020BDE89A
:10196000F28300BF0038024000004742800E474229
:1019700000700040F8B500F020F8012000992060C8
:10198000FFF71EFB07463168C80306D4FFF718FBB4
:10199000C01BA842F7D30320F2BD01206060FFF70F
:1019A0000FFB04463168880305D4FFF709FB001BD1
:1019B000A842F7D3EFE70020F2BD0020009040F2EC
:1019C000E9350748074C0168044E41F08051016039
:1019D000006800F0805000907047000004700040E4
:1019E0004038024040000E4281B0002000900B4879
:1019F000416841F480414160416801F480410091B7
:101A00000021009B0091026842F080520260006851
:101A100000F080500090009801B0704740380240BC
:101A200000B500BF130096469446103928BFA0E8C1
:101A30000C50FAD85FEA417C28BF0CC048BF40F880
:101A4000042BC90728BF20F8022B48BF00F8012B40
:101A500000BD000070B5044621680D680846A9075E
:101A600046682ED5B0062CD5216CC80603D4216C4F
:101A700041F4007121642168886810F0405F04BF60
:101A8000207E002816D1C86A10F4700F02D0886832
:101A900041050FD42068416821F020014160216C8C
:101AA00021F480712164206CC10403D4206C40F0C7
:101AB00001002064204600F060F821686FF01200F9
:101AC0000860680734D5310632D5206CC10603D4CE
:101AD000206C40F4005020642168886810F4401F96
:101AE0001FD1886B10F4401F02D08868420518D4BB
:101AF0004868420515D4886810F0405F04BF207E16
:101B000000280ED1486820F080004860206C20F446
:101B100080502064216CC80503D4216C41F0010180
:101B20002164204600F02AF820686FF00C01016063
:101B3000E90710D570060ED522681168C8070AD5C6
:101B4000216C41F480312164204600F018F82068AF
:101B50006FF001010160A9060ED570010CD5616C12
:101B600041F0020161646FF02005206805602046A5
:101B700000F006F821680D6070BD7047704770472F
:101B8000704730B4002412E050F8043BDA0744BF39
:101B90004B445B1E091F042943F8044BFAD21A4632
:101BA0008D0744BF1C80921CCB0748BF147050F8AF
:101BB000041B0029E8D130BC7047000010B5034A6F
:101BC0007A440832024C7C44A41D03E078000000F3
:101BD0009800000004E01168101D11448847024677
:101BE000A242F8D110BD0000FEE7FEE7FEE7FEE7E7
:101BF000FEE770477047704700F00AB80248FFF7E9
:101C000029BF0248FEF727BB140000205C0100201A
:101C10000248426801785118416070470400002072
:101C20004EF68851CEF20001086840F4700008605A
:101C3000BFF34F8FBFF36F8F4FF00170E1EE100ACB
:101C4000704700003FFFFFFF9401000014000020D8
:101C500000000000CFEEFFFF140000009000000025
:101C600000000020000000000249086840F47000F5
:101C70000860704788ED00E00000000000000000F0
:101C8000010203040607080900F00DF8002801D03E
:101C9000FFF794FFAFF300800020AFF30080FEF762
:101CA00055FF00F002F80120704700F001B8000075
:101CB0000746384600F002F8FBE7000080B5AFF3B6
:101CC0000080024A11001820ABBEFBE7260002008C
:101CD0000548014603B4684680F30988AFF30080E5
:101CE000FFF79EFFFFF7D0FFA5EDF5FE0100000016
:101CF0000100000000000000100000000024F400BB
:101D00000148804701480047691C0008D11C0008B1
:101D10000000000001020304FFF7FEBFFFF7FEBF53
:101D2000FFF7FEBFFFF7FEBFFFF7FEBFFFF7FEBFE7
:101D3000FFF7FEBFFFF7FEBFFFF7FEBFFFF7FEBFD7
:101D4000FFF7FEBFFFF7FEBFFFF7FEBFFFF7FEBFC7
:101D5000FFF7FEBFFFF7FEBFFFF7FEBFFFF7FEBFB7
:101D6000FFF7FEBFFFF7FEBFFFF7FEBFFFF7FEBFA7
:101D7000FFF7FEBFFFF7FEBFFFF7FEBFFFF7FEBF97
:101D8000FFF7FEBFFFF7FEBFFFF7FEBFFFF7FEBF87
:101D9000FFF7FEBFFFF7FEBFFFF7FEBFFFF7FEBF77
:101DA000FFF7FEBFFFF7FEBFFFF7FEBFFFF7FEBF67
:101DB000FFF7FEBFFFF7FEBFFFF7FEBFFFF7FEBF57
:101DC000FFF7FEBFFFF7FEBFFFF7FEBFFFF7FEBF47
:101DD000FFF7FEBFFFF7FEBFFFF7FEBFFFF7FEBF37
:101DE000FFF7FEBFFFF7FEBFFFF7FEBFFFF7FEBF27
:101DF000FFF7FEBFFFF7FEBFFFF7FEBFFFF7FEBF17
:101E0000FFF7FEBFFFF7FEBFFFF7FEBFFFF7FEBF06
:101E1000FFF7FEBFFFF7FEBFFFF7FEBFFFF7FEBFF6
:101E2000FFF7FEBFFFF7FEBFFFF7FEBFFFF7FEBFE6
:101E3000FFF7FEBFFFF7FEBFFFF7FEBFFFF7FEBFD6
:101E4000FFF7FEBFFFF7FEBFFFF7FEBFFFF7FEBFC6
:101E5000FFF7FEBFFFF7FEBFFFF7FEBFFFF7FEBFB6
:101E6000FFF7FEBFFFF7FEBFFFF7FEBFFFF7FEBFA6
:081E7000FFF7FEBFFFF7FEBF04
:0400000508001CD102
:00000001FF
